:020000040800F2
:100000004005002001010008CD2F000891290008BB
:10001000C92F0008590100089D37000800000000A2
:100020000000000000000000000000003131000866
:100030002507000800000000F1300008C931000861
:100040001B0100081B0100081B0100081B01000820
:100050001B0100081B0100081B0100081B01000810
:100060001B0100081B0100081B0100081B01000800
:100070001B0100081B0100081B0100081B010008F0
:100080001B0100081B0100081B0100081B010008E0
:100090008D3700081B0100081B0100081B01000828
:1000A0001B0100081B0100081B0100081B010008C0
:1000B0001B0100081B0100081B0100081B010008B0
:1000C0001B0100081B0100081B0100081B010008A0
:1000D0001B0100087D3700081B0100081B010008F8
:1000E0001B0100081B0100081B010008DFF80CD0F1
:1000F00000F020F800480047AD3700084005002018
:100100000648804706480047FEE7FEE7FEE7FEE7B1
:10011000FEE7FEE7FEE7FEE7FEE7FEE769320008DE
:10012000ED000008421C10F8011B0029FBD1801AC9
:1001300070470000064C074D06E0E06840F0010300
:1001400094E8070098471034AC42F6D3FFF7D2FF8B
:10015000F03B0008103C0008FFE7FEE780B586B0E2
:1001600005908DF813100020039002909DF8130065
:1001700020B9FFE70598406B029003E00598806B7B
:100180000290FFE7059800689DF8131000EB01103E
:10019000D0F8B00100F004000299886002988068ED
:1001A00060B9FFE7059800689DF8131000EB011097
:1001B000D0F8B001400D029908600BE00598006886
:1001C0009DF8131000EB0110D0F8B001C00802999F
:1001D0004860FFE7059800689DF8131000EB0110D8
:1001E000D0F8B00100F002000299C86005980068DC
:1001F0009DF8131000EB0110D0F8B40100F00F00CF
:10020000029908619DF81300029908620598006838
:100210009DF8131000EB0110D0F8B401C0F30720D3
:100220000299C861059800689DF8131000EB011051
:10023000D0F8B80102990875059800689DF8131068
:1002400000EB0110D0F8B801000A02994875059832
:1002500000689DF8131000EB0110D0F8B801000CF5
:1002600002998875059800689DF8131000EB01103D
:10027000D0F8B801000E0299C875059800689DF87D
:10028000131000EB0110D0F8BC0102990876059814
:1002900000689DF8131000EB0110D0F8BC01000AB3
:1002A00002994876059800689DF8131000EB01103C
:1002B000D0F8BC01000C02998876059800689DF87A
:1002C000131000EB0110D0F8BC01000E0299C876A3
:1002D0009DF8130058B9FFE7059801682020C86011
:1002E00005980168486920F00A0048610AE005980D
:1002F00001682020086105980168486920F05000D5
:100300004861FFE7059890F83C0003900398222885
:1003100004D0FFE70398322807D1FFE7059801686A
:10032000486920F40F404861FFE79DF8130028BB9F
:10033000FFE7059890F83C0001460191422808D05B
:10034000FFE70198622809D0FFE7019872280AD0D8
:100350000EE00599122081F83C000EE0059932204C
:1003600081F83C0009E00599522081F83C0004E046
:100370000599012081F83C00FFE724E0059890F8FA
:100380003C0001460091522808D0FFE700986228FF
:1003900009D0FFE7009872280AD00EE005991220D4
:1003A00081F83C000EE00599222081F83C0009E02C
:1003B0000599422081F83C0004E00599012081F86C
:1003C0003C00FFE7FFE7059800F09EFD002006B027
:1003D00080BD000080B582B0019001980168486935
:1003E00020F001004861019890F83C00122807D1E4
:1003F000FFE701980168486920F40F404861FFE772
:10040000019890F83C0001460091422808D0FFE78F
:100410000098522809D0FFE7009872280AD00EE011
:100420000199222081F83C000EE00199322081F8E8
:100430003C0009E00199622081F83C0004E0019948
:10044000012081F83C00FFE7019800F061FD0020E9
:1004500002B080BD80B582B0ADF80600BDF80600E0
:1004600000F0E8FD02B080BD80B588B084460A98EF
:10047000CDF81CC006918DF817208DF816308DF838
:1004800015000698079908609DF8170007990871EC
:100490009DF81600079948719DF815000799887115
:1004A00007992820887207990620C87107990C209F
:1004B000087207991420487207990820C8723220E0
:1004C0000290FFF7C7FF07983321019100220492A1
:1004D00000F0B8F80199049A079800F0B3F80520E5
:1004E0000390FFF7B7FF0299049A079800F0AAF863
:1004F0000398FFF7AFFF049A0798202100F0A2F8B5
:100500000398FFF7A7FF049A0798C17900F09AF8BB
:10051000049A0798017A00F095F8049A0798417AAE
:1005200000F090F8049A0798817A00F08BF8049A0A
:100530000798012100F086F8049A0798022100F03C
:1005400081F808B080BD000080B582B001908DF8C0
:1005500003108DF8022000208DF801009DF80300A3
:1005600001994979884206DBFFE701984079013813
:100570008DF80300FFE79DF8020001998979884210
:1005800006DBFFE70198807901388DF80200FFE76C
:100590009DF8020028B9FFE79DF803008DF80100DF
:1005A00023E09DF80200012806D1FFE79DF8030033
:1005B00040308DF8010017E09DF80200022806D1B6
:1005C000FFE79DF8030014308DF801000BE09DF863
:1005D0000200032806D1FFE79DF8030054308DF890
:1005E0000100FFE7FFE7FFE7FFE701989DF8011033
:1005F00041F08001002200F025F802B080BD00002B
:1006000080B582B001908DF8031001989DF8031019
:10061000012200F017F802B080BD000080B582B062
:1006200001900091FFE70098007840B1FFE7019842
:1006300000994A1C00920978FFF7E2FFF3E702B045
:1006400080BD000080B586B005908DF813108DF840
:1006500012209DF8130000F0F0008DF811009DF8B5
:10066000130000018DF810000598C07A68B1FFE70B
:100670009DF8110040F008008DF811009DF8100061
:1006800040F008008DF81000FFE79DF812000128E7
:100690000DD1FFE79DF8110040F001008DF8110029
:1006A0009DF8100040F001008DF8100011E09DF859
:1006B000120068B9FFE79DF8110000F0FE008DF808
:1006C00011009DF8100000F0FE008DF81000FFE70B
:1006D000FFE79DF8110040F004008DF80C000120A8
:1006E0000290FFF7B7FE02989DF811108DF80D10DB
:1006F0009DF8101041F004018DF80E10FFF7AAFECE
:100700009DF810008DF80F000599086809796B466F
:100710004FF47A721A6003AA042300F0A3FF06B014
:1007200080BD00007047000083B00290019100205E
:10073000009001984169012088400090029800686B
:10074000D0F8000243F6017188430199496A40EAF2
:100750000120013002990968C1F80002009A02984C
:100760000168D1F81C029043C1F81C020198C069CD
:1007700008BBFFE7009A02980168D1F80C02904389
:10078000C1F80C02019A9088D168526940EA014090
:100790000299096801EBC201C1F84002019A108870
:1007A0009168526940EA01400299096801EBC2016F
:1007B000C1F84402FFE70198C069012821D1FFE791
:1007C000009A02980168D1F80C021043C1F80C029B
:1007D000019A90881168526940EA014002990968BB
:1007E00001EBC201C1F84002019A908991685269F7
:1007F00040EA01400299096801EBC201C1F84402D4
:10080000FFE70198806948B9FFE7009A02980168FC
:10081000D1F804029043C1F8040208E0009A02985B
:100820000168D1F804021043C1F80402FFE70198FF
:10083000006948B9FFE7009A02980168D1F81402EC
:100840009043C1F8140208E0009A02980168D1F8B8
:1008500014021043C1F81402FFE70198006A01284E
:1008600009D1FFE7009A02980168D1F81C021043F1
:10087000C1F81C02FFE702980168D1F8000220F0DD
:100880000100C1F80002002003B0704781B0009061
:1008900001B0704780B586B00590002004900390A9
:1008A0000290019005980068C068C0F300100490A1
:1008B000059800684069C0F3C0000390049860B1D7
:1008C000FFE7039848B1FFE7019840F400700190FA
:1008D000059801681020C860FFE705980068006966
:1008E000C0F300100490059800684069C0F38010C0
:1008F0000390049860B1FFE7039848B1FFE70198BF
:1009000040F4806001900598016810200861FFE7BD
:10091000059800684069C00718B1FFE7012020B9B9
:1009200069E00120002866D1FFE70598006880682B
:100930000121C0F2004108406FF080610844B0FA24
:1009400080F04009049005980068806840F200112A
:10095000C0F6000108404FF60071CFF2FF71084465
:10096000B0FA80F040090390059800688068002183
:10097000C1F2010108400021CEF6FF710844B0FA2F
:1009800080F040090290049830B9FFE7039818B945
:10099000FFE7029870B3FFE7059800688068C0F32E
:1009A00040000490059800688068C0F340200390E0
:1009B00005980068806800F001000290049830B942
:1009C000FFE7039818B9FFE7029820B1FFE7059801
:1009D000FFF700FD04E0019840F400600190FFE79C
:1009E00005980168886840F20952C0F2010210437C
:1009F0008860FFE7FFE705980068C06800F0030023
:100A00000490059800684069C0F340000390049882
:100A100040B1FFE7039828B1FFE705980021FFF7F1
:100A20009DFBFFE705980068006900F00300049053
:100A3000059800684069C0F300100390049840B125
:100A4000FFE7039828B1FFE705980121FFF786FB30
:100A5000FFE7019A0599086C10430864059800683F
:100A6000806900F001000490059800684069C0F3B7
:100A70000020039005980068406980B2C00B029086
:100A8000049860B1FFE7039848B1FFE7029830B1DE
:100A9000FFE70599086C40F001000864FFE705983E
:100AA00000688069C0F340000490059800684069C0
:100AB000C0F34020039005980068406980B2C00BE5
:100AC0000290049860B1FFE7039848B1FFE70298ED
:100AD00030B1FFE70599086C40F002000864FFE7B9
:100AE000059800688069C0F380000490059800684C
:100AF0004069C0F38020039005980068406980B287
:100B0000C00B0290049860B1FFE7039848B1FFE77B
:100B1000029830B1FFE70599086C40F004000864C2
:100B2000FFE705980068806900F07000B0FA80F077
:100B300040090490059800684069C0F3C020039004
:100B400005980068406980B2C00B029004980028A4
:100B500053D1FFE7039800284FD0FFE70298002801
:100B60004BD0FFE705980068806900F070000490A2
:100B700004980090102814D0FFE70098202816D081
:100B8000FFE70098302818D0FFE7009840281AD0D7
:100B9000FFE7009850281CD0FFE7009860281ED07F
:100BA00023E00599086C40F0080008641EE00599F0
:100BB000086C40F01000086418E00599086C40F0DB
:100BC0002000086412E00599086C40F040000864B9
:100BD0000CE00599086C40F08000086406E0059977
:100BE000086C40F48070086400E0FFE70598016835
:100BF000886920F070008861FFE70598006C98B163
:100C0000FFE705980168042048600599012081F8F4
:100C10003C0005980168486948F65B72904348615A
:100C20000598FFF733FEFFE706B080BD80B586B0BC
:100C300004900020039002900190049820B9FFE7EF
:100C400001208DF8170005E1049890F83C0040B9A8
:100C5000FFE70499002081F83D00049800F0FEF8B9
:100C6000FFE70499022081F83C00049801680868B5
:100C700020F00200086004980168086840F0010054
:100C8000086000F0A3FB0290FFE70498006840684A
:100C9000C007B0B9FFE700F099FB0299401A0B2892
:100CA0000ED3FFE70499032081F83C00FFE7049985
:100CB000002081F83D00FFE703208DF81700C9E010
:100CC000E3E7049800684068C007002800F0AC80A3
:100CD000FFE704988069012805D1FFE7019840F0FB
:100CE0008000019004E0019820F080000190FFE76F
:100CF0000498C069012805D1FFE7019840F0400041
:100D0000019004E0019820F040000190FFE7049872
:100D1000006A012805D1FFE7019840F0200001900A
:100D200004E0019820F020000190FFE70498406A59
:100D3000012805D1FFE7019840F01000019004E080
:100D4000019820F010000190FFE70498806A0128C4
:100D500005D1FFE7019840F00800019004E00198F8
:100D600020F008000190FFE70498C06A012805D12F
:100D7000FFE7019840F00400019004E0019820F0A2
:100D800004000190FFE704980068006820F0FC0070
:100D900001990843049909680860049B19685A6816
:100DA0009868D3F80CC040EA0C00D3F810C040EAB1
:100DB0000C005B691843013A1043C861049801684C
:100DC000086820F00100086004980168086820F0B5
:100DD0000100086000F0FAFA0290FFE7049800684A
:100DE0004068C007B0B1FFE700F0F0FA0299401A7E
:100DF0000B280ED3FFE70499032081F83C00FFE79E
:100E00000499002081F83D00FFE703208DF81700CA
:100E100020E0E3E7049800684068C00718B9FFE7DE
:100E200001200390FFE7FFE7039801280AD1FFE7BD
:100E3000049900200864049A012182F83C108DF87E
:100E4000170007E00499042081F83C0001208DF888
:100E50001700FFE79DF8170006B080BD80B58AB087
:100E600009900998006846F20041C4F200018842E6
:100E700048D1FFE7FFE741F21C00C4F2020001681D
:100E800041F000710160006800F000700490049867
:100E9000FFE74FF48070059000200690079040F621
:100EA0000040C4F20100019005A9029100F0E4F8AD
:100EB000019802994FF400720592022206920322D1
:100EC000089200F0D9F8FFE70421C4F20101086894
:100ED0000390039820F4C0400390039840F0E06032
:100EE0000390039840F48040039003980860FFE764
:100EF000142000900022114600F0C0FD009800F080
:100F0000B3FDFFE70AB080BD81B0009001B070472B
:100F100081B0009001B0704780B588B00790002084
:100F20008DF81B00079890F82100022807D0FFE7F2
:100F300007990420886301208DF81B0076E007984C
:100F40000168086820F00E000860079801680868CA
:100F500020F001000860079800680821C4F202012F
:100F6000884203D1FFE70120059047E00798006819
:100F70001C21C4F20201884203D1FFE71020049033
:100F800039E0079800683021C4F20201884204D198
:100F9000FFE74FF4807003902AE00798006844212F
:100FA000C4F20201884204D1FFE74FF4805002905E
:100FB0001BE0079800685821C4F20201884204D15E
:100FC000FFE74FF4803001900CE0079801686C2235
:100FD000C4F202024FF08070914208BF4FF48010BB
:100FE0000190FFE701980290FFE702980390FFE766
:100FF00003980490FFE704980590FFE70598042103
:10100000C4F2020108600799012081F82100FFE77E
:101010000799002081F82000FFE70798406B20B176
:10102000FFE70798416B8847FFE7FFE79DF81B0044
:1010300008B080BD80B584B0039000F0C7F902907D
:10104000039801900198013048B1FFE740F2040095
:10105000C2F200000178019808440190FFE7FFE721
:1010600000F0B4F90299401A0199884201D2FFE7D1
:10107000F6E704B080BD000090B00F900E91002004
:101080000C900B900A90099007900D90FFE70D9837
:101090000F2800F28081FFE70D99012088400C9015
:1010A0000E9800680C9908400B900B980C99884298
:1010B00040F06C81FFE70E9840680590002851D001
:1010C000FFE7059801283AD0FFE7059802283FD0AE
:1010D000FFE7059803285FD0FFE70598112832D075
:1010E000FFE70598122838D0FFE705980021C1F2E4
:1010F0001101884236D0FFE705980021C1F21201A4
:1011000088422FD0FFE705980021C1F221018842D3
:1011100028D0FFE705980021C1F22201884221D0A2
:10112000FFE705980021C1F2310188421AD0FFE79C
:1011300005980021C1F23201884213D02FE00E98A9
:10114000C06809902CE00E98C0680430099027E030
:101150000E98C0680830099022E00E98C0680C30E4
:1011600009901DE00E98806818B9FFE704200990E7
:1011700011E00E988068012806D1FFE70820099049
:101180000C980F99086105E0082009900C980F99B8
:101190004861FFE7FFE703E00020099000E0FFE778
:1011A0000B98FF2803D8FFE70F98049003E00F98EF
:1011B00004300490FFE7049808900B98FF2804D8A7
:1011C000FFE70D988000039006E00D996FF01F0077
:1011D00000EB81000390FFE70398079008980068F0
:1011E000079A0F2191408843099991400843089933
:1011F00008600E98C079C006002840F1C680FFE75D
:10120000FFE741F21800C4F20200016841F0010159
:101210000160006800F0010006900698FFE70D9855
:1012200020F003000821C4F2010140580A900D98F3
:1012300000F0030081000F2000FA01F10A988843B2
:101240000A900F9840F60001C4F20101884203D1D0
:10125000FFE70020029026E00F9840F60041C4F21C
:101260000101884203D1FFE70120019018E00F98A7
:1012700041F20001C4F20101884203D1FFE70220DC
:1012800000900AE00F9941F20042C4F201020420EA
:10129000914208BF03200090FFE700980190FFE70C
:1012A00001980290FFE702980D9901F0030189006F
:1012B00000FA01F10A9808430A900A980D9921F062
:1012C00003010822C4F2010288500E988079C007F9
:1012D00048B1FFE70B9A40F20041C4F201010868EF
:1012E0001043086008E00B9A40F20041C4F201018B
:1012F000086890430860FFE70E988079800700280F
:1013000009D5FFE70B9A40F20441C4F201010868D5
:101310001043086008E00B9A40F20441C4F2010156
:10132000086890430860FFE70E988079C00600289F
:1013300009D5FFE70B9A40F20841C4F201010868A1
:101340001043086008E00B9A40F20841C4F2010122
:10135000086890430860FFE70E98807980060028AF
:1013600009D5FFE70B9A40F20C41C4F2010108686D
:101370001043086008E00B9A40F20C41C4F20101EE
:10138000086890430860FFE7FFE7FFE7FFE70D9875
:1013900001300D907BE610B07047000082B00190E4
:1013A000ADF802108DF801209DF8010028B1FFE78B
:1013B000BDF802000199086105E0BDF802000004D3
:1013C00001990861FFE702B07047000040F2381051
:1013D000C2F200000068704780B58EB00C900C9887
:1013E00020B9FFE701208DF8370037E10C9890F81D
:1013F0003D0040B9FFE70C99002081F83C000C98B3
:1014000000F034FAFFE70C99242081F83D000C9895
:101410000168086820F00100086000F099FC0A905B
:101420000C98406848F2A061C0F2010188420BD8D4
:10143000FFE70A9948F28042C0F21E020020914262
:1014400038BF012009900AE00A9940F60012C0F264
:101450003D020020914238BF01200990FFE7099822
:10146000012804D1FFE701208DF83700F6E00A9843
:101470004DF68361C4F21B31A0FB0110800C0B9070
:101480000C980068406820F03F000B9908430C99C5
:10149000096848600C980068006A20F03F000890D6
:1014A0000C98406848F2A061C0F20101884204D85B
:1014B000FFE70B98013007900EE00B984FF4967100
:1014C000484344F6D351C1F26201A0FB010101205F
:1014D00000EB91100790FFE70898079908430C99D3
:1014E000096808620C980068C0694CF6FF7188436F
:1014F00006900C98406848F2A061C0F20101884251
:101500001FD8FFE70A9801380C9949684900B0FBD9
:10151000F1F001306FF31F30032803D8FFE70420F8
:1015200005900BE00A9801380C9949684900B0FB16
:10153000F1F001306FF31F300590FFE7059804903C
:101540004CE00C98806868B9FFE70A9801380C995C
:10155000496801EB4101B0FBF1F001306FF31F303E
:1015600003900DE00A9801380C99496819225143FB
:10157000B0FBF1F00130042161F31F300390FFE76D
:101580000398000518B9FFE70120029023E00C98AA
:10159000806868B9FFE70A9801380C99496801EB3F
:1015A0004101B0FBF1F001306FF31F3001900DE00D
:1015B0000A9801380C99496819225143B0FBF1F09F
:1015C0000130042161F31F300190FFE7019840F4DE
:1015D00000400290FFE702980490FFE70698049904
:1015E00008430C990968C8610C980068006820F0ED
:1015F000C0000C9B1968DA691B6A1A431043086023
:101600000C980068806848F2FF3188430C9A116892
:10161000D36812691A43104388600C980068C06848
:1016200020F0FF000C9B19685A699B691A4310430C
:10163000C8600C980168086840F0010008600C99C7
:10164000002008640C9A202182F83D100C99086350
:101650000C9981F83E008DF83700FFE79DF83700C0
:101660000EB080BD80B588B0DDF828C00690ADF81A
:1016700016100492ADF80E30FFF7A8FE02900698FF
:1016800090F83D00202840F0E980FFE70698029995
:101690006A4611600221C0F210010122192301F0F3
:1016A00075FA20B1FFE702208DF81F00DAE0FFE7AE
:1016B000069890F83C00012804D1FFE702208DF83D
:1016C0001F00CFE00699012081F83C00FFE7FFE70B
:1016D000069800680068C00738B9FFE706980168F7
:1016E000086840F001000860FFE706980168086894
:1016F00020F4006008600699212081F83D000699D9
:10170000102081F83E00069900200864049806998C
:101710004862BDF80E00069948850698408D0699E6
:10172000088506990020CFF6FF70C8620698BDF8BC
:1017300016100A9A029B01F05FF920B1FFE7012021
:101740008DF81F008EE0FFE70020019006980068EA
:101750004069019006980068806901900198FFE750
:10176000FFE70698008D002860D0FFE706980A99E9
:10177000029A01F0F3FA80B1FFE70698006C0428A2
:1017800007D1FFE706980168086840F40070086018
:10179000FFE701208DF81F0064E006980168406AA9
:1017A000007808610699486A013048620699488DB8
:1017B000013848850699088D013808850698006823
:1017C000406900F004010120B0EB910F16D1FFE752
:1017D0000698008D90B1FFE706980168406A00788E
:1017E00008610699486A013048620699488D0138B7
:1017F00048850699088D01380885FFE706980A99FB
:10180000029A01F077F980B1FFE70698006C04288E
:1018100007D1FFE706980168086840F40070086087
:10182000FFE701208DF81F001CE09AE70698016889
:10183000086840F4007008600699202081F83D0097
:101840000699002081F83E00FFE70699002081F804
:101850003C00FFE700208DF81F0003E002208DF818
:101860001F00FFE79DF81F0008B080BD80B588B05D
:101870000790002006900590049003900798006858
:1018800045F20041C4F2000188422CD1FFE7FFE796
:1018900041F21800C4F20200016841F00801016041
:1018A000006800F0080002900298FFE7C020039053
:1018B000122004900320069040F60040C4F201007C
:1018C00003A9FFF7D9FBFFE741F21C00C4F20200B5
:1018D000016841F400110160006800F400100190FB
:1018E0000198FFE7FFE708B080BD000040F2040068
:1018F000C2F20000027840F23811C2F2000108681A
:10190000104408607047000080B582B042F20001C8
:10191000C4F20201086840F010000860032000F0E3
:10192000C7F80020019000F005F800F03BF801989E
:1019300002B080BD80B582B0009040F20000C2F2DB
:101940000000006840F20401C2F200010A784FF47E
:101950007A71B1FBF2F1B0FBF1F000F0C3FD20B100
:10196000FFE701208DF8070018E000980F280DD838
:10197000FFE700994FF0FF30002200F07FF8009859
:1019800040F20801C2F20001086003E001208DF876
:10199000070003E000208DF80700FFE79DF807002F
:1019A00002B080BD80B584B0FFE741F21800C4F2F8
:1019B0000200016841F001010160006800F00100CF
:1019C00003900398FFE7FFE741F21C00C4F2020016
:1019D000016841F080510160006800F08050029081
:1019E0000298FFE7032000F063F86FF00B0000227D
:1019F0000092114600F042F8009A6FF00A0011467A
:101A000000F03CF8009A6FF00900114600F036F83B
:101A1000009A6FF00400114600F030F8009A6FF061
:101A20000300114600F02AF8009A6FF001001146F9
:101A300000F024F8009A4FF0FF30114600F01EF835
:101A4000FFE70421C4F2010108680190019820F029
:101A5000E0600190019840F00070019001980860EA
:101A6000FFE704B080BD000080B582B08DF80700AC
:101A70009DF9070001F0ACFA02B080BD80B586B0D8
:101A80008DF81700049103920020029001F0E8FA0B
:101A900002909DF91700019002980499039A01F0B1
:101AA000A9FA0146019801F0E3FA06B080BD0000F2
:101AB00080B582B00190019801F0FCFA02B080BDBF
:101AC00080B586B00490039100200290039842F202
:101AD0000001C4F20201096801F00701884216D929
:101AE000FFE742F20000C4F20200016821F00701A2
:101AF000039A11430160006800F0070003998842CF
:101B000004D0FFE701208DF8170017E1FFE70498E4
:101B10000078800700280CD5FFE741F20401C4F2E9
:101B20000201086820F0F000049A926810430860EF
:101B3000FFE704980078C007002800F09D80FFE7C9
:101B40000498406801280ED1FFE741F20000C4F27A
:101B5000020000688003002804D4FFE701208DF80C
:101B60001700EBE021E00498406802280ED1FFE75F
:101B700041F20000C4F2020000688001002804D491
:101B8000FFE701208DF81700D8E00DE041F20000DA
:101B9000C4F2020000688007002804D4FFE7012097
:101BA0008DF81700CAE0FFE7FFE741F20401C4F235
:101BB0000201086820F00300049A5268104308608C
:101BC000FFF704FC02900498406801281AD1FFE74F
:101BD000FFE741F20400C4F20200006800F00C00CC
:101BE00004280ED0FFE7FFF7F1FB0299401A41F2FB
:101BF0008931884204D3FFE703208DF817009DE068
:101C0000E7E738E00498406802281AD1FFE7FFE7C9
:101C100041F20400C4F20200006800F00C00082841
:101C20000ED0FFE7FFF7D2FB0299401A41F289314B
:101C3000884204D3FFE703208DF817007EE0E7E732
:101C400018E0FFE741F20400C4F20200006810F05F
:101C50000C0F0ED0FFE7FFF7B9FB0299401A41F2D3
:101C60008931884204D3FFE703208DF8170065E02F
:101C7000E8E7FFE7FFE7FFE7039842F20001C4F25D
:101C80000201096801F00701884216D2FFE742F21B
:101C90000000C4F20200016821F00701039A114319
:101CA0000160006800F007000399884204D0FFE754
:101CB00001208DF8170041E0FFE704980078400705
:101CC00000280CD5FFE741F20401C4F202010868C4
:101CD00020F4E060049AD26810430860FFE704989B
:101CE0000078000700280DD5FFE741F20401C4F297
:101CF0000201086820F46050049A126940EAC200A8
:101D00000860FFE700F048F841F20401C4F2020164
:101D10000968C9B20A0943F69A11C0F60001895C44
:101D2000C84040F20001C2F20001086000200190AA
:101D3000FFF700FE01988DF81700FFE79DF81700E8
:101D400006B080BD40F20000C2F20000006870479B
:101D500080B5FFF7F7FF41F20401C4F20201096800
:101D6000C1F3022243F6AA11C0F60001895CC84003
:101D700080BD000080B5FFF7E5FF41F20401C4F229
:101D800002010968C1F3C22243F6AA11C0F600019C
:101D9000895CC84080BD00008BB040F60E70C1F277
:101DA00010000A9040F60A30C0F60C50099040F23C
:101DB0000670C0F60810089040F20230C0F20450DD
:101DC000079040F20120ADF81A0000200590049021
:101DD00003900290019041F20400C4F202000068F6
:101DE0000590059800F00C0001460091E0B3FFE774
:101DF0000098042804D0FFE70098082806D034E0B3
:101E000041F20020C0F27A00019034E00598C0F35E
:101E1000834107A8405C02909DF81600C007C0B13E
:101E2000FFE741F20400C4F20200006800F4003150
:101E30000DF11A0040EA514000780490029841F2F6
:101E40000021C0F27A0148430499B0FBF1F00390FD
:101E500007E0029840F60011C0F23D0148430390AC
:101E6000FFE70398019006E0FFE741F20020C0F28F
:101E70007A000190FFE701980BB0704780B586B0FB
:101E800004900020039004980078C007002800F018
:101E9000AE80FFE741F20400C4F20200006800F0E7
:101EA0000C00042813D0FFE741F20400C4F2020042
:101EB000006800F00C0008281BD1FFE741F2040085
:101EC000C4F202000068C003002812D5FFE741F207
:101ED0000000C4F2020000688003002808D5FFE774
:101EE0000498406820B9FFE701208DF81700D8E278
:101EF0007CE0FFE704984068B0F5803F09D1FFE738
:101F000041F20001C4F20201086840F48030086028
:101F100032E00498406868B9FFE741F20001C4F27A
:101F20000201086820F480300860086820F48020EE
:101F3000086020E004984068B0F5A02F0DD1FFE7BD
:101F400041F20001C4F20201086840F480200860F8
:101F5000086840F4803008600CE041F20001C4F2EF
:101F60000201086820F480300860086820F48020AE
:101F70000860FFE7FFE7FFE7FFE704984068D0B19C
:101F8000FFE7FFF723FA0390FFE741F20000C4F2F6
:101F900002000068800300280CD4FFE7FFF716FA60
:101FA0000399401A652804D3FFE703208DF8170032
:101FB00077E2EAE719E0FFF709FA0390FFE741F259
:101FC0000000C4F202000068800300280CD5FFE77F
:101FD000FFF7FCF90399401A652804D3FFE70320B3
:101FE0008DF817005DE2EAE7FFE7FFE7FFE70498F7
:101FF00000788007002840F18D80FFE741F204005F
:10200000C4F20200006810F00C0F13D0FFE741F299
:102010000400C4F20200006800F00C00082829D176
:10202000FFE741F20400C4F202000068C003002888
:1020300020D4FFE741F20000C4F2020000688007EC
:10204000002809D5FFE704980069012804D0FFE7BC
:1020500001208DF8170024E241F20001C4F20201D0
:10206000086820F0F800049A526940EAC20008604B
:10207000FFE74EE00498006958B3FFE70021C4F27F
:10208000422101200860FFF7A1F90390FFE741F228
:102090000000C4F202000068800700280CD4FFE7AB
:1020A000FFF794F90399401A032804D3FFE70320AC
:1020B0008DF81700F5E1EAE741F20001C4F20201F0
:1020C000086820F0F800049A526940EAC2000860EB
:1020D0001EE00021C4F2422100200860FFF776F9DB
:1020E0000390FFE741F20000C4F20200006880079D
:1020F00000280CD5FFE7FFF769F90399401A032878
:1021000004D3FFE703208DF81700CAE1EAE7FFE7F1
:10211000FFE7FFE7049800780007002848D5FFE7AD
:102120000498806918B3FFE740F28041C4F242216D
:1021300001200860FFF74AF90390FFE741F224000D
:10214000C4F202000068800700280CD4FFE7FFF704
:102150003DF90399401A032804D3FFE703208DF8C3
:1021600017009EE1EAE7012000F0C4FF1FE040F203
:102170008041C4F2422100200860FFF727F9039054
:10218000FFE741F22400C4F2020000688007002843
:102190000CD5FFE7FFF71AF90399401A032804D377
:1021A000FFE703208DF817007BE1EAE7FFE7FFE791
:1021B000049800784007002840F1D880FFE700200D
:1021C0008DF80B0041F21C00C4F202000068C00050
:1021D000002813D4FFE7FFE741F21C00C4F202001D
:1021E000016841F080510160006800F0805001906A
:1021F0000198FFE701208DF80B00FFE747F2000090
:10220000C4F200000068C005002822D4FFE747F2AE
:102210000001C4F20001086840F480700860FFF714
:10222000D5F80390FFE747F20000C4F20000006811
:10223000C00500280CD4FFE7FFF7C8F80399401A3F
:10224000652804D3FFE703208DF8170029E1EAE7AA
:10225000FFE7FFE70498C068012809D1FFE741F2D2
:102260002001C4F20201086840F00100086031E07A
:102270000498C06868B9FFE741F22001C4F2020186
:10228000086820F001000860086820F00400086079
:102290001FE00498C06805280DD1FFE741F2200136
:1022A000C4F20201086840F004000860086840F0C9
:1022B000010008600CE041F22001C4F2020108684C
:1022C00020F001000860086820F004000860FFE7C3
:1022D000FFE7FFE7FFE70498C068E0B1FFE7FFF71B
:1022E00075F80390FFE741F22000C4F20200006895
:1022F000800700280ED4FFE7FFF768F80399401A1B
:1023000041F28931884204D3FFE703208DF817009A
:10231000C7E0E8E71BE0FFF759F80390FFE741F259
:102320002000C4F202000068800700280ED5FFE7F5
:10233000FFF74CF80399401A41F28931884204D3DF
:10234000FFE703208DF81700ABE0E8E7FFE79DF813
:102350000B00012809D1FFE741F21C01C4F2020180
:10236000086820F080500860FFE7FFE70498C06924
:10237000002800F09280FFE741F20400C4F202005E
:10238000006800F00C00082800F08280FFE7049845
:10239000C06902285CD1FFE76021C4F2422100201D
:1023A0000860FFF713F80390FFE741F20000C4F262
:1023B00002000068800100280CD5FFE7FFF706F84F
:1023C0000399401A032804D3FFE703208DF8170070
:1023D00067E0EAE70498006AB0F5803F0CD1FFE7B8
:1023E00041F20401C4F20201086820F40030049AAA
:1023F000926810430860FFE741F20401C4F2020151
:10240000086820F47410049B1A6A5B6A1A4310432C
:1024100008606021C4F2422101200860FEF7D6FF67
:102420000390FFE741F20000C4F20200006880015F
:1024300000280CD4FFE7FEF7C9FF0399401A0328D0
:1024400004D3FFE703208DF817002AE0EAE71EE037
:102450006021C4F2422100200860FEF7B7FF03901C
:10246000FFE741F20000C4F202000068800100288A
:102470000CD5FFE7FEF7AAFF0399401A032804D3FF
:10248000FFE703208DF817000BE0EAE7FFE703E022
:1024900001208DF8170004E0FFE700208DF81700F9
:1024A000FFE79DF8170006B080BD000081B00090E6
:1024B0000098042809D1FFE74EF21001CEF2000186
:1024C000086840F00400086008E04EF21001CEF207
:1024D0000001086820F004000860FFE701B07047C1
:1024E0007047000080B582B00190019800F042FE74
:1024F00002B080BD80B5FFF7F3FF80BD81B00090D2
:1025000001B0704780B586B00590059800680068F6
:10251000049005980068C0680390059800684069B9
:102520000290002001900090049800F00F000190AC
:10253000019888B9FFE79DF81000800600280AD5A9
:10254000FFE79DF80C008006002804D5FFE70598FA
:1025500000F0F2FED2E0FFE70198002800F0AE8024
:10256000FFE79DF80800C00738B9FFE7BDF80C0089
:1025700010F4907F00F0A280FFE79DF81000C007E4
:1025800058B1FFE79DF80D00C00730B1FFE705998E
:10259000C86B40F00100C863FFE79DF810004007DA
:1025A00000280BD5FFE79DF80800C00730B1FFE712
:1025B0000599C86B40F00200C863FFE79DF8100062
:1025C000800700280BD5FFE79DF80800C00730B151
:1025D000FFE70599C86B40F00400C863FFE79DF86A
:1025E0001000000700280BD5FFE79DF80800C00782
:1025F00030B1FFE70599C86B40F00800C863FFE7FA
:102600000598C06B002858D0FFE79DF810008006A1
:1026100000280AD5FFE79DF80C008006002804D5A5
:10262000FFE7059800F088FEFFE70598006840691D
:10263000C0F3801000900598C06B0007002803D4F9
:10264000FFE7009888B3FFE7059800F04DFE059876
:10265000006840694006002822D5FFE70598016818
:10266000486920F0400048610598406B98B1FFE749
:102670000598416B43F2C920C0F6000048630598F5
:10268000406BFEF749FC28B1FFE70598406B416BB2
:102690008847FFE703E00598FFF730FFFFE703E017
:1026A0000598FFF72BFFFFE706E00598FFF726FFE9
:1026B00005990020C863FFE7FFE71FE09DF81000C1
:1026C000000600280AD5FFE79DF80C000006002848
:1026D00004D5FFE7059800F0B3FF0FE09DF8100068
:1026E000400600280AD5FFE79DF80C0040060028A8
:1026F00004D5FFE7059800F00BFEFFE706B080BDAC
:1027000080B582B00090009820B9FFE701208DF8D5
:1027100007003EE00098806908B1FFE700E0FFE7AE
:10272000009890F8390040B9FFE70099002081F83F
:102730003800009800F032F8FFE70099242081F873
:10274000390000980168C86820F40050C8600098FB
:1027500000F06AFE00980168086920F49040086162
:1027600000980168486920F02A00486100980168D3
:10277000C86840F40050C86000990020C863009AFF
:10278000202182F83910009A82F83A108DF807005B
:10279000FFE79DF8070002B080BD000080B58AB059
:1027A00009900998006843F60001C4F201018842CB
:1027B00034D1FFE7FFE741F21800C4F202000168DC
:1027C00041F480410160006800F480400490049866
:1027D000FFE74FF400700590022006900320089058
:1027E00040F60000C4F20100009005A90191FEF737
:1027F00043FC009801994FF48062059200220292F6
:1028000006920792FEF738FC029A252003901146A3
:10281000FFF734F90398FFF727F9FFE70AB080BD07
:1028200081B0009001B0704780B588B006900591E6
:10283000ADF81220039300200190069890F839001B
:10284000202840F09980FFE7059820B1FFE7BDF808
:10285000120020B9FFE701208DF81F0090E0FFE78C
:10286000069890F83800012804D1FFE702208DF87F
:102870001F0085E00699012081F83800FFE7FFE797
:1028800006990020C8630699212081F83900FEF7D7
:102890009DFD0190BDF8120006998884BDF81200D4
:1028A0000699C884FFE70698C08C002847D0FFE748
:1028B0000699C88C0138C88406988068B0F5805F96
:1028C00025D1FFE70698019B03996A461160802194
:1028D000002200F005FF20B1FFE703208DF81F0064
:1028E0004EE005980290029800886FF35F200699E9
:1028F000096848600698006920B9FFE7059802302A
:10290000059003E0059801300590FFE716E0069872
:10291000019B03996A4611608021002200F0E0FECD
:1029200020B1FFE703208DF81F0029E00598411C26
:1029300005910078069909684860FFE7B3E70698B3
:10294000019B03996A4611604021002200F0C8FEF5
:1029500020B1FFE703208DF81F0011E00699202029
:1029600081F83900FFE70699002081F83800FFE779
:1029700000208DF81F0003E002208DF81F00FFE704
:102980009DF81F0008B080BD81B0009001B0704775
:10299000FFE7FEE782B0009000980068406900F40D
:1029A00080610120B0EB912F1ED1FFE700980168F4
:1029B0006FF480604861009900200863009A20212C
:1029C00082F83D10009981F83E000099086C40F0B3
:1029D00004000864FFE70099002081F83C00FFE74D
:1029E00001208DF8070003E000208DF80700FFE7C5
:1029F0009DF8070002B0704780B588B00690ADF82A
:102A00001610049203930698C06A02900298082850
:102A100009D0FFE70298012805D0FFE7029810F5DA
:102A2000803F07D1FFE706980168086840F480708E
:102A300008600DE00698006B122807D1FFE70698A2
:102A40000168086840F48070086000E0FFE7FFE775
:102A50000698049B03996A4611604FF00111002209
:102A600000F094F820B1FFE701208DF81F003CE052
:102A700006980069B0F5804F08D1FFE7BDF8160051
:102A800000F0FE000699096808611CE0BDF8160018
:102A900000F44070C009F030069909680861069892
:102AA000049A039B0821C0F2010100F0CFF820B185
:102AB000FFE701208DF81F0017E09DF8160006992A
:102AC00009680861FFE70698049A039B0221C0F297
:102AD000010100F0BBF820B1FFE701208DF81F00D5
:102AE00003E000208DF81F00FFE79DF81F0008B0ED
:102AF00080BD000080B584B0029001910092FFE794
:102B000002980068406900F004010020B0EB910FCA
:102B100033D1FFE70298FFF73DFF20B1FFE7012027
:102B20008DF80F002DE00198013028B3FFE7FEF784
:102B30004DFC0099401A0199884203D8FFE701989B
:102B4000C8B9FFE7029900200863029A202182F8A1
:102B50003D10029981F83E000299086C40F0200077
:102B60000864FFE70299002081F83C00FFE701209C
:102B70008DF80F0005E0FFE7C2E700208DF80F0099
:102B8000FFE79DF80F0004B080BD000080B586B05F
:102B9000DDF820C0049003918DF80B200193FFE72E
:102BA0009DF80E0001280CD1FFE7049800684069E9
:102BB000BDF80C100840401AB0FA80F040090090AF
:102BC0000BE0049800688069BDF80C100840401ABA
:102BD000B0FA80F040090090FFE700989DF80B10D4
:102BE00088422AD1FFE70198013028B3FFE7FEF7BA
:102BF000EDFB0899401A0199884203D8FFE7019834
:102C0000C8B9FFE7049900200863049A202182F8DC
:102C10003D10049981F83E000499086C40F02000B2
:102C20000864FFE70499002081F83C00FFE70120D9
:102C30008DF8170005E0FFE7B2E700208DF81700D8
:102C4000FFE79DF8170006B080BD000080B586B094
:102C50000490039102920193FFE79DF80E00012872
:102C60000CD1FFE7049800684069BDF80C100840DB
:102C7000401AB0FA80F0400900900BE00498006818
:102C80008069BDF80C100840401AB0FA80F0400985
:102C90000090FFE70098002858D1FFE704980068EB
:102CA000406900F480610120B0EB912F24D1FFE74F
:102CB00004980168086840F400700860049801688E
:102CC0006FF480604861049900200863049A202111
:102CD00082F83D10049981F83E000499086C40F098
:102CE00004000864FFE70499002081F83C00FFE736
:102CF00001208DF817002DE00298013028B3FFE77E
:102D0000FEF764FB0199401A0299884203D8FFE755
:102D10000298C8B9FFE7049900200863049A2021AB
:102D200082F83D10049981F83E000499086C40F047
:102D300020000864FFE70499002081F83C00FFE7C9
:102D400001208DF8170005E0FFE786E700208DF8E9
:102D50001700FFE79DF8170006B080BD80B584B06E
:102D6000029001910092FFE7029800684069C1B2A9
:102D70000020B0EBD11F33D1FFE70298FFF70AFE26
:102D800020B1FFE701208DF80F002DE00198013000
:102D900028B3FFE7FEF71AFB0099401A0199884211
:102DA00003D8FFE70198C8B9FFE70299002008633C
:102DB000029A202182F83D10029981F83E00029982
:102DC000086C40F020000864FFE70299002081F8B9
:102DD0003C00FFE701208DF80F0005E0FFE7C3E7A7
:102DE00000208DF80F00FFE79DF80F0004B080BDB4
:102DF00080B584B040F23800C2F20000029046F282
:102E00000041C4F2000101600921416000210391E9
:102E10008160C1604FF4402202614FF48012426130
:102E20008161C161016241628162C162FDF7FEFEA2
:102E3000D8B1FFE700F090FD43F60E20C0F6000089
:102E4000019000F077F9019800F074F943F66A20D8
:102E5000C0F6000000F06EF943F69C20C0F60000BA
:102E60004FF4837100F09CFC06E043F63820C0F676
:102E7000000000F05FF9FFE704B080BD80B58AB0C4
:102E8000FFE741F21800C4F20200016841F020019E
:102E90000160006800F0200005900598FFE7FFE75B
:102EA00041F21800C4F20200016841F0080101601B
:102EB000006800F0080004900498FFE7FFE741F283
:102EC0001800C4F20200016841F0040101600068CA
:102ED00000F0040003900398FFE740F60040C4F2BE
:102EE000010002904FF40051009100220192FEF780
:102EF00055FA009A019902980692012207920891C8
:102F00000221099106A9FEF7B7F80AB080BD0000BA
:102F100080B582B043F69330C0F6000000F00AF9A5
:102F200040F27C00C2F20000019045F20041C4F280
:102F30000001016048F2A061C0F20101416000217E
:102F40008160C1604FF48042026141618161C16171
:102F50000162FEF741FA78B1FFE743F69C20C0F624
:102F600000004FF49C7100F01BFC43F6AA20C0F651
:102F7000000000F0DFF8FFE702B080BD80B582B04E
:102F800040F2D000C2F20000019043F60001C4F20A
:102F9000010101604FF4E131416000218160C160B5
:102FA00001610C2242618161C161FFF7A9FB48B157
:102FB000FFE743F69C20C0F600004FF48E7100F04E
:102FC000EFFBFFE702B080BDFFE7FEE770470000C0
:102FD00081B08DF803009DF9031001F01F0201205C
:102FE00090404A094EF20011CEF2000141F8220051
:102FF00001B0704788B0079006910592079800F0DD
:10300000070004900498C0F10700052803D3FFE7E8
:103010000420019004E00498C0F107000190FFE74C
:103020000198039004980430062803D8FFE7002095
:10303000009003E0049803380090FFE700980290A6
:1030400006980399012202FA01F101390840029B16
:10305000984005999A40013A1140084308B07047DA
:103060004EF60C50CEF200000068C0F3022070470C
:1030700082B08DF8070000919DF90700B0F1FF3F85
:103080000CDCFFE7009800019DF8071001F00F012C
:103090004EF61452CEF20002885409E00098000166
:1030A0009DF907104EF20042CEF200028854FFE76D
:1030B00002B0704783B00290029800F007000090C1
:1030C0004EF60C51CEF200010868019001984FF6BF
:1030D000FF02104001900198009A40EA022000226D
:1030E000C0F2FA52104301900198086003B0704793
:1030F0007047000082B00190019840F20001C2F2D6
:1031000000010968C90844F6D352C1F26202A1FB6A
:103110000221890948430090FFE700BFFFE70098BC
:10312000411E00910028F8D1FFE702B0704700006F
:103130007047000080B586B0059005980190FCF7B7
:10314000F1FF019982B240F2D000C2F20000039078
:103150000A230293FFF768FB029B039840F60D21B8
:10316000ADF812100DF112010222FFF75DFB06B05F
:1031700080BD000080B582B0009000980138B0F1A9
:10318000807F03D3FFE70120019019E00098013808
:103190004EF21401CEF2000108604FF0FF300F2113
:1031A000FFF766FF4EF21801CEF200010020086022
:1031B0004EF21002CEF20002072111600190FFE7EB
:1031C000019802B080BD000080B5FEF78FFBFFF7CD
:1031D00091F980BD80B590B0012106914FF4803007
:1031E0000790002208920A9102210D910E904FF44F
:1031F000E0100F9006A8FEF741FE40B1FFE743F64E
:103200009C20C0F60000D22100F0CAFAFFE70F2090
:10321000019002210291002003904FF480620492F9
:10322000059001A8FEF74CFC40B1FFE743F69C2057
:10323000C0F60000E02100F0B3FAFFE7FEF782FDE0
:1032400044F6D351C1F26201A0FB01108009FFF7DF
:1032500049F90420FFF72AF94FF0FF300022114608
:10326000FEF70CFC10B080BD41F20002C4F2020275
:10327000106840F00100106041F20401C4F2020144
:1032800008680023CFF6FF031840086010684FF667
:10329000FF73CFF6F66318401060106820F48020AA
:1032A0001060086820F4FE00086041F20801C4F2D2
:1032B00002014FF41F0008604EF60851CEF20001E3
:1032C0004FF000600860704780B582B001900198AF
:1032D000406A009000990020C8850099C884009831
:1032E000FFF70CF902B080BD81B000900098016832
:1032F000C86820F49070C86000980168486920F0A0
:10330000010048610099202081F83A0001B070471F
:1033100080B582B0019001980168C86820F0400033
:10332000C8600199202081F839000198FFF72CFB33
:10333000002002B080BD000080B584B002900298E9
:1033400090F83A00222866D1FFE702988068B0F52D
:10335000805F1FD1FFE70298806A019002980069A0
:1033600060B9FFE70298006840686FF35F20019939
:1033700008800299886A023088620AE00298006830
:103380004068C0B2019908800299886A0130886259
:10339000FFE718E00298006948B9FFE70298006863
:1033A0004068029B996A4A1C9A6208700AE0029877
:1033B0000068406800F07F00029B996A4A1C9A628C
:1033C0000870FFE7FFE70299C88D0138C88500043F
:1033D000E8B9FFE702980168C86820F02000C860DB
:1033E00002980168C86820F48070C860029801687B
:1033F000486920F0010048610299202081F83A00D4
:103400000298FFF70DFA00208DF80F0007E000206A
:103410008DF80F0003E002208DF80F00FFE79DF804
:103420000F0004B080BD0000B0B590B00F90002038
:103430000E900F980068006920F440500F9A1168B0
:10344000D268104308610F9988680A694969104376
:1034500001430E9808430E900F980068C06841F22F
:103460000C6188430E9908430F990968C8600F984A
:103470000068406920F440700F9A11689269104307
:1034800048610F98006843F60001C4F201018842C8
:103490006AD1FFE7FEF76EFC1921099148430F99A5
:1034A00049688900B0FBF1F048F21F51C5F2EB11F9
:1034B0000B91A0FB01016FF00F0000EA5100089092
:1034C000FEF758FC099948430F9949688900B0FBF9
:1034D000F1F00790FEF74EFCDDF81CC0099B0B9A3B
:1034E0000146089859430F9B5B689B00B1FBF3F1C1
:1034F000A1FB0231490964230C9301FB13C3322160
:103500000A9101EB0311A1FB0212F02101EA521111
:1035100008440D90FEF72EFC099948430F9949681D
:103520008900B0FBF1F4FEF725FCDDF824C00A9A0F
:103530000B9BDDF830E001460D9801FB0CFC0F9D64
:1035400029686D68AD00BCFBF5FCACFB035C4FEA81
:103550005C1C0CFB1E4C02EB0C12A2FB0332C2F3F0
:1035600043121044886069E0FEF7F2FB19210291D2
:1035700048430F9949688900B0FBF1F048F21F51A8
:10358000C5F2EB110491A0FB01016FF00F0000EAFE
:1035900051000190FEF7DCFB029948430F994968FE
:1035A0008900B0FBF1F00090FEF7D2FBDDF800C01F
:1035B000029B049A0146019859430F9B5B689B004C
:1035C000B1FBF3F1A1FB023149096423059301FB2F
:1035D00013C33221039101EB0311A1FB0212F0216D
:1035E00001EA521108440690FEF7B2FB02994843E3
:1035F0000F9949688900B0FBF1F4FEF7A9FBDDF8EB
:1036000008C0039A049BDDF814E00146069801FB0C
:103610000CFC0F9D29686D68AD00BCFBF5FCACFB94
:10362000035C4FEA5C1C0CFB1E4C02EB0C12A2FB71
:103630000332C2F3431210448860FFE710B0B0BDFC
:1036400083B00190019890F83900212840D1FFE71C
:1036500001988068B0F5805F19D1FFE70198006A92
:103660000090009800886FF35F2001990968486016
:103670000198006928B9FFE70199086A02300862D9
:1036800004E00199086A01300862FFE708E0019A46
:10369000106A411C11620078019909684860FFE7CF
:1036A0000199C88C0138C884000468B9FFE7019803
:1036B0000168C86820F08000C86001980168C86887
:1036C00040F04000C860FFE700208DF80B0003E0E9
:1036D00002208DF80B00FFE79DF80B0003B0704748
:1036E00080B586B0DDF820C0049003918DF80B20E2
:1036F0000193FFE704980068006803990840401AA6
:10370000B0FA80F040099DF80B1088422ED1FFE7F7
:103710000898013048B3FFE7089840B1FFE7FDF78C
:1037200055FE0199401A089988421DD9FFE704986F
:103730000168C86820F4D070C860049801684869BE
:1037400020F0010048610499202081F83900049993
:1037500081F83A00FFE70499002081F83800FFE77C
:1037600003208DF8170005E0FFE7C3E700208DF880
:103770001700FFE79DF8170006B080BD80B540F246
:10378000D000C2F20000FEF7BDFE80BD80B540F261
:103790003800C2F20000FDF77DF880BDFFE7FEE7CC
:1037A00082B001900091FFE7FEE7000080B588B08D
:1037B000FEF7AAF8FFF70EFDFFF760FBFFF7DEFB51
:1037C00043F61E30C0F60000FFF7B4FC43F6EA20D3
:1037D000C0F60000FFF7AEFC43F6B210C0F60000E2
:1037E000FFF7A8FC43F6DC20C0F60000FFF7A2FCC0
:1037F00043F64A20C0F60000FFF79CFC43F6832006
:10380000C0F60000FFF796FCFFF782FB6946042034
:103810000590086040F21000C2F20000029040F2F1
:103820007C01C2F200014E221423FCF71DFE029817
:10383000002207921146FCF787FE029843F64231B8
:10384000C0F60001FCF7EAFE0298079901220492F3
:10385000FCF77AFE029843F6DC11C0F60001FCF793
:10386000DDFEFFF7C5FA4FF4FA700690FDF7E2FBB4
:1038700043F6B130C0F60000FFF75CFC43F626309B
:10388000C0F60000FFF756FC0498079A40F21011AA
:10389000C2F2000103914A618A61C8610A604A600C
:1038A0008A60CA600A6108620E20486243F652309C
:1038B000C0F60000FFF73EFC039940F23800C2F268
:1038C0000000FCF731FF43F67D30C0F60000FFF743
:1038D00031FC43F6D530C0F60000FFF72BFC43F671
:1038E0000530C0F60000FFF725FC049A0598079BF9
:1038F00040F21C01C2F200018B604FF0F10CC1F8E4
:1039000000C0CB604FF0080CC1F810C00B754A75B1
:1039100002228A750322CA75087605204876062099
:1039200088760720C87643F6C420C0F60000FFF76B
:1039300001FC43F6C410C0F60000FFF7FBFB06983D
:10394000FDF778FB43F6EB10C0F60000FFF7F2FB43
:10395000079808B080BD000080B582B040F60D2009
:10396000ADF8060040F2D000C2F200000DF10601F1
:1039700002220A23FEF758FF02B080BD02E008C809
:10398000121F08C1002AFAD170477047002001E0D9
:1039900001C1121F002AFBD1704700000000000087
:1039A00000000102030406070809000000000102EC
:1039B0000304436C6F636B20636F6E666967757297
:1039C000656420004C696E6B696E672069742074B1
:1039D0006F20746865206863616E200048656C6CB8
:1039E0006F20616E6820656D2021002D2D2D2D2DFD
:1039F0002D2D2D2D2D2D2D2D2D2D2D2D2D2D2D2DF7
:103A00002D2D2D2D2D2D2D2D2D2D2D2D2D002F2F0F
:103A10002F2F2F2F2F2F2F2F2F2F2F2F2F2F2F2FB6
:103A20002F2F2F2F2F2F2F2F2F2F2F2F2F2F2F2FA6
:103A30002F2F2F2F2F2F2F0043414E204255532041
:103A4000494E4954494154454400476F696E6720C7
:103A5000746F2074727920746F20696E6974696163
:103A60007465204D585F43414E004552524F5220DD
:103A7000494E4954494154494E472043414E204202
:103A8000555300494E495449414C4953494E4720EA
:103A900043414E20425553204E4F57002E2E2F5358
:103AA00072632F6D61696E2E630049324320696E27
:103AB000697469616C697A6174696F6E20666169A5
:103AC0006C6564004D657373616765206461746142
:103AD00020636F6E666967757265640048414C20AB
:103AE000696E69746961746564005541525420615E
:103AF0006E64204750494F20697320696E6974696C
:103B0000617465640053657474696E672075702014
:103B10007468652054784D657373616765005765F7
:103B20006C636F6D65005374617274696E672077A2
:103B3000697468207346696C746572436F6E666958
:103B400067004C696E6820546F206465702067615F
:103B5000690046696C74657220636F6E66696720E0
:103B600077617320646F6E65206E6F7720746F20AD
:103B70006C696E6B20746F206863616E00416C6CC1
:103B8000206C696E6B656420757020746F206863AB
:103B9000616E0057656C636F6D6520746F204932EC
:103BA0004320696E697469616C697A6174696F6ECA
:103BB0000053657474696E6720746865204D657381
:103BC000736167657320616E6420706572616D65F5
:103BD00074657273004E6F7720666F72207468652B
:103BE0002054782073696465206F66206974000032
:103BF000103C000800000020100000007C39000884
:103C0000203C000810000020300500008C3900081E
:103C100000A24A04010000001000000000000000A3
:04000005080000ED02
:00000001FF
