:020000040800F2
:10000000E004002001010008BD160008B516000834
:10001000B9160008490100085D2000080000000032
:10002000000000000000000000000000C5160008ED
:10003000C102000800000000C1160008C91600082F
:100040001B0100081B0100081B0100081B01000820
:100050001B0100081B0100081B0100081B01000810
:100060001B0100081B0100081B0100081B01000800
:100070001B0100081B0100081B0100081B010008F0
:100080001B0100081B0100081B0100081B010008E0
:10009000512000081B0100081B0100081B0100087B
:1000A0001B0100081B0100081B0100081B010008C0
:1000B0001B0100081B0100081B0100081B010008B0
:1000C0001B0100081B0100081B0100081B010008A0
:1000D0001B010008452000081B0100081B01000847
:1000E0001B0100081B0100081B010008DFF80CD0F1
:1000F00000F018F80048004761200008E0040020E4
:100100000648804706480047FEE7FEE7FEE7FEE7B1
:10011000FEE7FEE7FEE7FEE7FEE7FEE75117000811
:10012000ED000008064C074D06E0E06840F00103D2
:1001300094E8070098471034AC42F6D3FFF7DAFF93
:100140001029000830290008FEE7000010B5382209
:10015000002908BF34220368825803EB0114D4F845
:10016000B03104F5D87C13F004039360D4F8B0E107
:1001700019BF4FEADE0353604FEA5E531360DCF8A9
:100180000030002903F00203D360D4F8B4311162C7
:1001900003F00F031361D4F8B431C3F30723D36121
:1001A000D4F8B8316FF050041375036803EB0113F2
:1001B000D3F8B8314FEA13235375036803EB0113E7
:1001C000D3F8B8314FEA13439375036803EB011377
:1001D000D3F8B8314FEA1363D375036803EB011307
:1001E000D3F8BC311376036803EB0113D3F8BC31A9
:1001F0004FEA13235376036803EB0113D3F8BC31A2
:100200004FEA13439376036803EB0113D3F8BC3131
:100210004FEA1363D376D0F800C04FF010034FF0CD
:10022000200208BF0C234CF80320DCF8142008BF80
:100230006FF00A042240CCF8142090F83C2002F021
:10024000EF02222A05D1DCF8142022F40F42CCF868
:10025000142090F83C2069B1522A19D0722A1FD07C
:10026000622A14BF0121222180F83C10BDE8104011
:1002700000F054BA422A0BD0722A19D0622A14BF55
:100280000121322180F83C10BDE8104000F046BA50
:10029000122180F83C10BDE8104000F03FBA00BFCA
:1002A000422180F83C10BDE8104000F037BA00BF92
:1002B000522180F83C10BDE8104000F02FBA000039
:1002C0007047000070B50268D1F814E0CE694B6A3F
:1002D000D2F8004243F6017524EA050545EA0323F6
:1002E0000133C2F800324FF0010CD2F81C320CFA84
:1002F0000EF06FEA000C8343012EC2F81C3211D0BD
:100300003EBBD2F80C3203EA0C03C2F80C32CB68C5
:100310008C8844EA034302EBCE04C4F840320B4617
:100320000FE000BFD2F80C320343C2F80C320B6866
:100330008C8844EA034302EBCE04C4F8403201F156
:100340000C038C681B8802EBCE0643EA0443C6F814
:100350004432D2F804328C6943EA00060D69096A16
:10036000002C08BF03EA0C06C2F80462D2F814326B
:10037000002D43EA000608BF03EA0C060129C2F873
:10038000146204D1D2F81C120843C2F81C02D2F83D
:10039000000220F001010020C2F8001270BD000030
:1003A0007047000070B5044600680026C2684169C5
:1003B000D20606D511F008011EBF1021C1604FF40E
:1003C000007602694169D20606D511F040011EBFD0
:1003D00006F58066102101614169C9074CD081682A
:1003E0000123C0F2004301EA0305826881689D424F
:1003F0000CD040F20013C0F600031A409A4205D018
:100400000022C1F201021140914235D18368826815
:1004100081689B0708D412F4007208BF11F0010133
:1004200002D106F5006620E0416921F00101416139
:1004300094F83C10122903D1416921F40F41416124
:1004400094F83C00422807D0722807D0522814BFE5
:100450000120322003E000BF222000E0622084F867
:100460003C00204600F05CF92068816840F20952A7
:10047000C0F2010211438160C2684169920718BF4E
:1004800011F0020104D020460021FFF75FFE206832
:1004900001694069890718BF10F0100003D0204699
:1004A0000121FFF753FE2168206C304320648B69E3
:1004B0004A694869DB0709D012F4807218BF10F44A
:1004C000004003D0206C40F0010020648B694A6931
:1004D00048699B0709D512F4007218BF10F4004058
:1004E00003D0206C40F0020020648B694A6948699F
:1004F0005B0709D512F4806218BF10F4004003D0E6
:10050000206C40F0040020648B694A69486913F04C
:10051000700F15D012F4006218BF10F400400FD015
:10052000886900F0700010385F2805D880080EA296
:100530001058226C10432064886920F07000886194
:10054000206C002808BF70BD04204860012084F89A
:100550003C00486948F65B7220EA020220464A6184
:10056000BDE87040FFF71CBF08000000100000004D
:10057000200000004000000080000000000100009A
:10058000B0B578B3044690F83C0028B9002084F850
:100590003D00204600F076F8022084F83C002068F8
:1005A000016821F002010160016841F00101016070
:1005B00000F032FA054600BF20684168C9070BD138
:1005C00000F02AFA401B0B28F6D30320002184F800
:1005D0003C0084F83D10B0BD4168C90704D1042037
:1005E00084F83C000120B0BDA169E2690139B1FA8B
:1005F00081F14909C901012A226A08BF403104F189
:100600002405012A08BF20312CCD012AA3F10102C3
:10061000B2FA82F208BF103152090368D20023F007
:10062000FC03012D08BF043221F00C011A441143D0
:100630000160251D2ECD1A4363692A431A430139EF
:100640001143C161016821F001010160016821F0DD
:100650000101016000F0E0F9054600BF2068416833
:10066000C90705D000F0D8F9401B0B28F6D3ACE73A
:100670004068C007B3D100200121206484F83C10F9
:10068000B0BD0000B0B584B0006846F20041C4F2CD
:100690000001884202D004B0B0BD00BF41F21C008E
:1006A000C4F20200016840F6004441F000710160AC
:1006B0000068C4F2010400F00070009000984FF44C
:1006C0008070009000206D46CDE90100204629464B
:1006D00000F092F84FF40070009002200190032087
:1006E00003902046294600F087F80420C4F2010058
:1006F000016849F6FF72CFF6FF02114041F0E06158
:1007000041F48041016014200021002200F02EFA03
:10071000142000F01DFA04B0B0BD000070470000C6
:100720007047000080B590F82110022924D102689A
:10073000116821F00E0111602F211368C4F202012B
:100740008A4240F20401C4F2020123F00103136063
:1007500016DD3023C4F202039A421DD04423C4F2B2
:1007600002039A421CD05823C4F202039A421DD1BC
:100770004FF4803322E000BF04218163012080BD5B
:100780000823C4F202039A420ED01C23C4F20203CF
:100790009A420BD1102311E04FF480730EE000BF9A
:1007A0004FF480530AE000BF012307E001F1680C19
:1007B0004FF08073624508BF4FF480130B60416BAC
:1007C0004FF48072028401B18847002080BD000090
:1007D000B0B5044600F020F9054640F20000C2F230
:1007E00000000078611C18BF044400BF00F014F939
:1007F000401BA042FAD3B0BD2DE9F04F82B040F2C9
:100800000C4C41F200424FF6FF7EC4F2010CC4F2E0
:100810000102042700240123C1F2100E4FF0000A48
:100820004FF00009904208BF0327009744E000BF43
:10083000012704F00C030F229A402BEA020207FA68
:1008400003F34FEA9A051A4346F82520D1F804B07D
:1008500040F20045C4F201055FEACB322A6854BF7A
:1008600022EA080242EA08022A606A685FEA8B33D9
:1008700054BF22EA080242EA08026A605FEACB2318
:10088000AA6854BF22EA080242EA08025FEA8B2300
:10089000AA60DCF800204FF0010354BF22EA0802EE
:1008A00042EA0802CCF800200AF1010ABAF1100F5E
:1008B00004F1040400F0A6800A6803FA0AF812EAB8
:1008C000080FF1D04E68764512DC122E56D8DFE8BC
:1008D00006F0350B45495555555555555555555502
:1008E0005555554D510000BFD1F80C9046E000BF62
:1008F0004FF6FF72C1F2210296420FDC0022C1F2D4
:10090000110296421AD00022C1F21202964215D06C
:100910000022C1F22102964210D02FE00022C1F243
:10092000220296420AD00022C1F23102964205D03C
:100930000022C1F23202964220D100BF8A684AB139
:10094000012A14BFC0F81480C0F810804FF00809C5
:1009500014E000BF4FF0040910E000BFCA6802F1C4
:1009600008090BE04FF0000908E000BFCA6802F177
:10097000040903E0CA6802F10C0900BF22460646DA
:10098000BAF1080F24BF203A043637680F25954086
:1009900027EA050509FA02F22A433260CA79D2062B
:1009A0007FF582AF41F21803C4F202031A6842F0E5
:1009B00001021A601A6802F001020192019A40F2E3
:1009C0000042C4F20102A2F57E762AF0030256F834
:1009D00002B040F60002C4F20102904210D040F68C
:1009E0000042C4F2010290423FF422AF41F2000201
:1009F000C4F20102009F904208BF022719E700BF1E
:100A0000002716E702B0BDE8F08F0000002A08BFFB
:100A1000090401617047000040F2D800C2F20000F2
:100A20000068704740F2000040F2D801C2F20000B6
:100A3000C2F2000100780A681044086070470000A4
:100A400080B542F20000C4F20200016841F01001DA
:100A50000160032000F0B6F8002000F005F800F077
:100A600027F8002080BD000070B540F20006C2F2F9
:100A7000000640F208013278C2F200014FF47A73A6
:100A80000968B3FBF2F20446B1FBF2F1084600F04C
:100A90008BFB0F2C4FF0010508D838B94FF0FF3011
:100AA00021460022002500F061F87460284670BDE0
:100AB00080B582B041F21800C4F20200016841F032
:100AC00001010160016801F0010101910199416892
:100AD00041F080514160406800F0805000900098E3
:100AE000032000F06FF86FF00B000021002200F0EF
:100AF0003DF86FF00A000021002200F037F86FF097
:100B000009000021002200F031F86FF004000021FC
:100B1000002200F02BF86FF003000021002200F00B
:100B200025F86FF001000021002200F01FF84FF0BF
:100B3000FF300021002200F019F80420C4F2010067
:100B40000168022262F31A61016002B080BD0000F8
:100B500000F01F01012202FA01F14EF200124009D9
:100B6000CEF2000242F820107047000010B54EF699
:100B70000C5CCEF2000CDCF80030C3F3022E8EF0D9
:100B80000704042C28BF0424BEF103034FF0FF3EEA
:100B90000EFA04F438BF0023A14399400EFA03F380
:100BA0009A43114300F1604200F00F03090102F57E
:100BB0006442043B6344002848BF03F10C021170F7
:100BC00010BD00004EF60C51CEF200010A684FF63F
:100BD000FF031A4060F30A2242F0806040F0FD708B
:100BE000086070472DE9F04381B042F20008C4F27A
:100BF0000208D8F800200D4602F00701A942044679
:100C00000CD2D8F8000020F007002843C8F80000F4
:100C1000D8F8000000F00700A84254D1206841F243
:100C200004078107C4F2020705D53968A26821F0DC
:100C3000F00111433960C0073CD1D8F8000000F042
:100C40000700A8420CD9D8F8000020F0070028437C
:100C5000C8F80000D8F8000000F00700A84232D120
:100C60002068410705D53968E26821F4E061114345
:100C70003960000706D53868216920F4605040EAE1
:100C8000C10038603A6802F00C00082841F20020E8
:100C9000C0F27A0067D142F24C53C2F38341C0F6EE
:100CA0000003595CD20353D440F60010C0F23D005B
:100CB000484358E0606802280AD0012842D157F81A
:100CC000041C890308D40124204601B0BDE8F08348
:100CD00057F8041C8901F6D5396821F0030108434F
:100CE0003860FFF799FE61680646012941F28839AC
:100CF0000ED0022921D100BF386800F00C0008286E
:100D00009BD0FFF789FE801B4845F5D90BE000BF5B
:100D1000386800F00C0004283FF48FAFFFF77CFE2A
:100D2000801B4845F4D90324204601B0BDE8F08378
:100D3000FFF772FE801B4845F5D8386810F00C0F9D
:100D4000F6D17AE757F8041C8907BCD5C4E700BF81
:100D50003A6842F23253C2F34042C0F600039A5C52
:100D60004843B0FBF2F0396842F23452C1F3031148
:100D7000C0F60002515C0024C84040F20801C2F2F3
:100D8000000108600020FFF76FFE204601B0BDE8BB
:100D9000F083000040F20800C2F2000000687047D3
:100DA00040F2080041F20401C2F20000C4F2020164
:100DB0000068096842F24452C1F30221C0F6000201
:100DC000515CC8407047000040F2080041F2040145
:100DD000C2F20000C4F202010068096842F2445203
:100DE000C1F3C221C0F60002515CC8407047000048
:100DF0002DE9F04182B00446007841F20006C007B8
:100E0000C4F2020625D0706800F00C0004281BD044
:100E1000706800F00C00082802D17068C00313D479
:100E20006068002800F05881B0F5A02F00F06C81B8
:100E3000B0F5803F00F06C81306820F48030306085
:100E4000306820F4802066E13068800301D5606856
:100E500058B32078800718D5706810F00C0F07D0B1
:100E6000706800F00C00082860D17068C0035DD481
:100E70003068800702D52069012816D13068616981
:100E800020F0F80040EAC10030602078000711D45B
:100E90002078400724D4E569002D00F07381706844
:100EA00000F00C00082840F07F80012002B0BDE86F
:100EB000F08100BFA069002862D00020C4F2422067
:100EC0000121C0F88014FFF7A7FD0546706A80076E
:100ED00000F18C80FFF7A0FD401B0228F6D928E125
:100EE000F06910F0805808D1F06940F08050F0614E
:100EF000F06900F080500090009847F20007C4F2BB
:100F000000073868C00529D4386840F4807038601C
:100F1000FFF782FD054600BF3868C0051ED4FFF705
:100F20007BFD401B6428F7D903E100BF206900283E
:100F300040F20000C4F2422000F0828001210160F2
:100F4000FFF76AFD054600BF3068800796D4FFF7BB
:100F500063FD401B0228F7D9EBE000BFE0680028E2
:100F600000F07E80052800F09580012800F0968032
:100F7000306A20F001003062306A20F0040090E016
:100F80000020C4F242200021C0F88014FFF744FD85
:100F9000054600BF706A80077FF57AAFFFF73CFD1A
:100FA000401B0228F6D9C4E00027C4F242270020E3
:100FB0003866FFF731FD022D05460BD13068800100
:100FC00040F1BC80FFF728FD401B02284FF00300D2
:100FD000F4D9D3E03068800140F1D480FFF71CFDE4
:100FE000401B03284FF00300F4D3C7E040F2080091
:100FF000C2F20000006844F6D351C1F26201A0FBC6
:101000000101480A019000BF00BF0198411E00285D
:1010100001913FF43DAF00BF0198411E00280191AE
:101020003FF436AF00BF0198411E002801913FF404
:101030002FAF00BF0198411E00280191E4D127E79E
:1010400000210160FFF7E8FC054600BF306880071B
:101050007FF51BAFFFF7E0FC401B0228F6D968E0E4
:10106000306A20F001003062306A20F00400306203
:10107000FFF7D2FC054641F2883700BF306A80078F
:1010800020D5FFF7C9FC401BB8424FF00300F5D94B
:1010900074E000BF306A40F004003062306A40F013
:1010A00001003062FFF7B8FC054641F2883700BF07
:1010B000306A800706D4FFF7AFFC401BB842F7D96F
:1010C00037E000BFB8F1000F7FF4E5AEF06920F023
:1010D0008050F061DFE600BF306820F4803030607F
:1010E000306820F480203060FFF796FC054600BF92
:1010F000306880037FF5ADAEFFF78EFC401B64289F
:101100004FF00300F4D939E0306840F480203060BB
:10111000306840F480303060FFF77EFC054600BF49
:10112000306880033FF595AEFFF776FC401B6428DE
:10113000F6D9032002B0BDE8F08100BF206AB0F507
:10114000803F05D17168A26821F4003111437160BC
:101150007168626A21F474111143084370600120C0
:101160003866FFF759FC0446306880010AD4FFF75F
:1011700053FC001B02284FF00300F5D902B0BDE874
:10118000F08100BF002002B0BDE8F0814EF21001F6
:10119000CEF200010A68042822F0040208BF0432DB
:1011A0000A60704770470000411E0020B0EB116FCD
:1011B0001CBF012070474EF21002CEF200025160B7
:1011C0004EF62351CEF20001F0230B700721906000
:1011D00011607047FFF7E6BF70470000B0B50546E5
:1011E00000680168C368446901F02F02202A03F0F7
:1011F000200213D192B195F83A10222940F0DE80F6
:10120000A968B1F5805F41D12A69A96A4068002ABE
:1012100062D0C0B221F8010B62E000BF5FEA017C3E
:101220001EBF04F0010E03F4907414EB0E0439D1C8
:101230000A0617D513F0800214D095F83910212929
:1012400040F0BC80AA68296AB2F5805F32D10A8872
:101250006FF35F2242602A69002A14BF0131023114
:1012600029622BE0490640F1A98013F0400108BF34
:10127000B0BDC16821F04001C1602021284685F839
:101280003910BDE8B04000F013BA00BF29694068CA
:101290000029A96A18BF00F07F004A1CAA620870E2
:1012A0001FE000BFCC0718BF13F4807334D14B0785
:1012B00038D43EE04A1C2A6209784160E98C013941
:1012C0000A04E9847AD1C16821F08001C160C16853
:1012D00041F04001C160B0BD6FF35F2021F8020B07
:1012E000A962E88D01380104E88567D12868C168E2
:1012F00021F02001C160C16821F48071C1604169A1
:1013000021F0010141612021284685F83A10BDE80D
:10131000B04000F007B900BFEB6B43F00103EB6393
:101320004B0706D5BEF1000F03D0EB6B43F0020371
:10133000EB638B0706D5BEF1000F03D0EB6B43F0D8
:101340000403EB63BCF1000F06D5BEF1000F03D020
:10135000EB6B43F00803EB63EB6B7BB311F0200105
:1013600018BF002A38D128684169EA6B01F04001B2
:1013700002F00802891823D0C16821F49071C1607D
:10138000416921F001014161202185F83A1041694C
:1013900049061BD5416921F040014161686BA8B144
:1013A00041F6C561C0F600014163FFF7BBF928B102
:1013B000686B416BBDE8B040084700BFB0BD00BFDF
:1013C0002846FFF709FF0020E863B0BD2846BDE8C6
:1013D000B040FFF701BF00BF95F83A102229C2D1F3
:1013E000A968B1F5805F07D12A69A96A40687AB116
:1013F000C0B221F8010B0FE0296940680029A96AF1
:1014000018BF00F07F004A1CAA62087005E000BF08
:101410006FF35F2021F8020BA962E88D0138010407
:10142000E885A0D12868C16821F02001C160C168A9
:1014300021F48071C160416921F0010141612020E6
:1014400085F83A00284600F06DF88CE7002804BFC4
:101450000120704710B5044690F8390028B90020E3
:1014600084F83800204600F021F8242084F8390060
:101470002068C16821F40051C160204600F028FDB9
:101480002068016921F490410161416921F02A013C
:101490004161C16841F40051C16000202021E06336
:1014A00084F8391084F83A1010BD0000B0B584B04B
:1014B00040F60004C4F20104006804F5405188427B
:1014C00002D004B0B0BD00BF41F21800C4F2020067
:1014D00001686D4641F4804101600068294600F4CE
:1014E0008040009000984FF400700090022001901E
:1014F000032003902046FFF77FF94FF480600090AF
:101500000020CDE9010020462946FFF775F9252086
:1015100000210022FFF72AFB2520FFF719FB04B06A
:10152000B0BD0000704700002DE9F041044690F87E
:10153000390020280ED10F4600294FF0010000F09D
:10154000B4801646002A08BFBDE8F08194F8380040
:10155000012803D10220BDE8F08100BF012084F8FA
:1015600038000020E06321201D4684F83900FFF791
:1015700053FAA684E684E18C0646002960D005F182
:10158000010805E017F8011B4160E18C002958D0E3
:10159000E08C0138E0842068A1680268B1F5805FC2
:1015A00002F080011ED179B9B8F1000F2CD0002DC6
:1015B0006AD000BFFFF730FA811B2068A94263D8C8
:1015C00001680906F6D500BF39886FF35F214160D5
:1015D0002169002914BF01370237E18C0029D7D1D6
:1015E0002FE000BF0029CDD1B8F1000F1AD0002D97
:1015F0004AD000BFFFF710FA811B2068A94243D8E8
:1016000001680906F6D5BDE701680906DCD4016862
:1016100009065CBF01685FEA0161D5D4016809066B
:10162000F2D5D1E701680906ACD4016809065CBFB0
:1016300001685FEA0161A5D401680906F2D5A1E756
:101640002068016849061AD4F5B1691C0ED10168F9
:10165000490614D4016849065CBF01685FEA41612C
:101660000DD401684906F2D509E000BFFFF7D4F9AF
:10167000811B2068A94207D800684006F6D52020C3
:1016800084F8390000200DE0C16821F4D071C160F8
:10169000416921F001014161202084F8390084F87A
:1016A0003A000320002184F83810BDE8F0810000E2
:1016B00070470000FEE70000FEE7000070470000F2
:1016C000704700007047000080B5FFF7ABF9BDE838
:1016D0008040FFF77FBD0000B0B590B001200690BC
:1016E0000A904FF4E0104FF48031002402250F904F
:1016F00006A807910894CDE90D51FFF779FB08B1D1
:10170000FEE700BF0F20CDE901054FF48060CDE971
:10171000040401A802210394FFF764FA10B100BF8A
:10172000FEE700BFFFF736FB44F6D351C1F262017A
:10173000A0FB01018809FFF737FD0420FFF726FD14
:101740004FF0FF3000210022FFF710FA10B0B0BDBB
:1017500041F20000C4F202000168002241F00101E0
:1017600001604168CFF6FF021140416001684FF609
:10177000FF72CFF6F66211400160016821F480210A
:101780000160416821F4FE0141604FF41F01816056
:101790004EF60850CEF200004FF000610160704735
:1017A0002DE9F04F81B040F29806C2F200068A4659
:1017B00004460FF27C61304622220A23FFF7B4FE72
:1017C00040F60D250DF10201304602220A23ADF844
:1017D0000250FFF7A9FE0FF27C6130461B220A235C
:1017E000FFF7A2FE0DF10201304602220A23ADF8F6
:1017F0000250FFF799FE0FF27861304611220A235A
:10180000FFF792FE0DF10201304602220A23ADF8E5
:101810000250FFF789FE0FF26C61304612220A2354
:10182000FFF782FE0DF10201304602220A23ADF8D5
:101830000250FFF779FE2068816849015CBF81682A
:101840005FEA011154D594F83D00012804D102202B
:1018500001B0BDE8F08F00BF40F298060120C2F24F
:10186000000684F83D000FF2306130460E220A2354
:10187000FFF75AFE40F60D250DF102013046022217
:101880000A23ADF80250FFF74FFE0FF21C613046FD
:1018900018220A23FFF748FE0DF10201304602220A
:1018A0000A23ADF80250FFF73FFE94F83C0040F2E7
:1018B0009806C2F20006622824D0322836D02228A8
:1018C0004AD142F29E51C0F60001304619220A2345
:1018D000FFF72AFE40F60D20ADF802000DF10201DF
:1018E000304602220A23FFF71FFE422049E000BFD4
:1018F0008068C000A7D4042084F83C00012001B017
:10190000BDE8F08F42F2B851C0F6000130461D220A
:101910000A23FFF709FE0DF10201304602220A23D5
:10192000ADF80250FFF700FE72202AE042F2D651D5
:10193000C0F60001304619220A23FFF7F5FD40F6F4
:101940000D20ADF802000DF10201304602220A23FB
:10195000FFF7EAFD522014E042F2B271C0F6000136
:10196000304615220A23FFF7DFFD40F60D20ADF8C3
:1019700002000DF10201304602220A23FFF7D4FDD6
:10198000122040F29806C2F2000642F6EE0184F8F8
:101990003C00C0F60001304621220A23FFF7C4FDB7
:1019A00040F60D250DF10201304602220A23ADF862
:1019B0000250FFF7B9FD2068816811F080691FD1DE
:1019C000806840F29806C2F20006000132D442F26A
:1019D0003661C0F60001304622220A23FFF7A4FD3B
:1019E00040F60D20ADF802000DF102013046022252
:1019F0000A230227FFF798FD4FF0000831E000BFEF
:101A000040F29806C2F2000642F2F051C0F6000120
:101A1000304622220A23FFF787FD0DF102013046EE
:101A200002220A23ADF80250FFF77EFD4FF00008B6
:101A3000002716E042F21361C0F600013046222270
:101A40000A23FFF771FD40F60D20ADF802000DF1FD
:101A50000201304602220A23FFF766FD4FF001081B
:101A6000012740F29806C2F2000642F2C871C0F6A1
:101A7000000130460D220A23FFF756FD40F60D25E2
:101A80000DF10201304602220A23ADF80250FFF7A1
:101A90004BFD206840F2100B00EB0710D0F88011CE
:101AA000C2F2000B01F00101C0F88011DBF8081050
:101AB00000F5C070A1B1216B40F29806D1E9012375
:101AC000C96843EAC2020368114319430160C2F2C4
:101AD000000642F27C61C0F600013046192212E095
:101AE000DBF80010DBF80C20036842EA415119438F
:101AF00040F298060160C2F2000642F26861C0F648
:101B00000001304613220A23FFF70EFD0DF10201FA
:101B1000304602220A23ADF80250FFF705FD40F2DD
:101B20009806C2F2000642F29661C0F60001304605
:101B300013220A23FFF7F8FC40F60D250DF10201F0
:101B4000304602220A23ADF80250FFF7EDFC42F2C4
:101B50005961C0F6000130460E220A23FFF7E4FC6B
:101B60000DF10201304602220A23ADF80250FFF7C0
:101B7000DBFCDBF8100042F23B7100F00F00CBF809
:101B80001000C0F6000130462E220A23FFF7CCFCDD
:101B90000DF10201304602220A23ADF80250FFF790
:101BA000C3FC2068442200EB0710D0F884110A23FC
:101BB00021F00F01C0F8841142F2AA61C0F60001C1
:101BC0003046FFF7B1FC0DF10201304602220A2334
:101BD000ADF80250FFF7A8FC2068DBF8101000EB0E
:101BE0000710D0F884210A231143C0F8841142F26F
:101BF000EF61C0F6000130464B22FFF795FC0DF176
:101C00000201304602220A23ADF80250FFF78CFC95
:101C100042F26A71C0F60001304613220A23FFF730
:101C200083FC0DF10201304602220A23ADF8025076
:101C3000FFF77AFC42F2EE71C0F600013046152241
:101C40000A23FFF771FC0DF10201304602220A233C
:101C5000ADF80250FFF768FC2068DBF8141000EBC9
:101C60000710C0F88811DBF818101A22C0F88C1180
:101C700042F27E71C0F6000130460A23FFF754FCA1
:101C80000DF10201304602220A23ADF80250FFF79F
:101C90004BFC206800EB0710D0F8801141F00101E7
:101CA000C0F88011FEF7B8FE2168B9F1000F8A680C
:101CB00006462FD1B8F1000F58D040F20015C0F6FB
:101CC000000502EA0500A84257D0BAF1000F00F063
:101CD0009B801AF1010016D188682840A8424CD098
:101CE00088682840A84248D088682840A84244D044
:101CF00088682840A842EFD13FE000BF2068806894
:101D00002840A84239D0FEF787FE801B5045F5D900
:101D10006CE000BF0125C0F2004502EA0500A842C0
:101D20002BD0BAF1000F69D01AF1010017D100BF12
:101D300088682840A84220D088682840A8421CD043
:101D400088682840A84218D088682840A842EFD167
:101D500013E000BF206880682840A8420DD0FEF73D
:101D60005BFE801B5045F5D940E000BF0025C1F265
:101D7000010502EA0500A84216D194F83C00422869
:101D800006D0722806D0522814BF0120322002E06B
:101D9000222000E0622084F83C00002084F83D000E
:101DA00001B0BDE8F08F00BFBAF1000F2CD01AF1DE
:101DB000010016D188682840A842DED088682840F3
:101DC000A842DAD088682840A842D6D0886828403F
:101DD000A842EFD1D1E700BF206880682840A84220
:101DE000CBD0FEF719FE801B5045F5D90320B9F181
:101DF000000F84F83C0004D109E000BF032084F800
:101E00003C00206880210AE0032084F83C00206820
:101E1000B8F1000F0CBF4FF400014FF40041816096
:101E2000002084F83D00032001B0BDE8F08F00BF22
:101E30005374617274696E6720746865207472618E
:101E40006E736D69742066756E6374696F6E206E53
:101E50006F7700007472616E736D69746D61696C87
:101E6000626F7820696E74206372656174656400C6
:101E70007469636B737461727420637265617465F5
:101E800064000000506172616D6574657273206357
:101E90006865636B6564000070726F6365737320BF
:101EA0006C6F636B65640000636865636B696E6784
:101EB000206863616E20737461747573206E6F7730
:101EC00000000000406A0021C185C184FFF784B989
:101ED0002DE9F04F81B00446006804F108030ECBF1
:101EE0000769194327F440573A430261626941F296
:101EF0000C631143C26848F21F5B9A431143C160EF
:101F00004169A26921F440711143416143F6000126
:101F1000C4F201018842C5F2EB1B3FD0FEF740FF3F
:101F20006168192778438900B0FBF1F0A0FB0B0131
:101F30006FF00F0000EA5106FEF732FF6168784348
:101F40008900B0FBF1F5FEF72BFF6168784389004B
:101F5000B0FBF1F04FF06408A0FB0B01480900FB57
:101F60001850322101EB0010A0FB0B01F02000EA19
:101F700051100644FEF714FF616878438900B0FBF6
:101F8000F1F5FEF70DFF616878438900B0FBF1F0D1
:101F9000A0FB0B01480900FB185045E0FEF714FFB9
:101FA00061684FF0190A00FB0AF08900B0FBF1F0FC
:101FB000A0FB0B016FF00F0000EA5108FEF704FFD1
:101FC000616800FB0AF08900B0FBF1F6FEF7FCFE49
:101FD000616800FB0AF08900B0FBF1F04FF0640982
:101FE000A0FB0B01480900FB1960322101EB001036
:101FF000A0FB0B01F02000EA511000EB0806FEF7F1
:10200000E3FE616800FB0AF08900B0FBF1F7FEF720
:10201000DBFE616800FB0AF08900B0FBF1F0A0FB79
:102020000B01480900FB1970322101EB0010A0FBE5
:102030000B01C1F3431021683043886001B0BDE853
:10204000F08F000040F29800C2F20000FFF7C6B81F
:1020500040F25400C2F20000FEF7A4B9FEE700000F
:1020600084B040F60044C4F20104FEF7E9FCFFF737
:1020700033FB41F21800C4F202000168002241F073
:102080002001016001684FF4005501F0200100912A
:1020900000990168002641F008010160016801F023
:1020A000080100910099016841F004010160006895
:1020B0004FF4005100F00400009000982046FEF715
:1020C000A5FC0120CDE901060220039069462046C7
:1020D0000095FEF791FB40F2980004F53051C2F2F2
:1020E00000000C234FF4E13280E84600C0E90366AB
:1020F000C0E90536C661FFF7A9F908B1FEE700BFE0
:1021000040F29805C2F20005DCA1284607220A2306
:10211000FFF70AFA40F60D2A6946284602220A23EA
:10212000ADF800A0FFF700FAD6A128461A220A232C
:10213000FFF7FAF96946284602220A23ADF800A003
:10214000FFF7F2F9D6A1284611220A23FFF7ECF98E
:102150006946284602220A23ADF800A0FFF7E4F9F9
:10216000D4A128460D220A23FFF7DEF96946284646
:1021700002220A23ADF800A0FFF7D6F9D1A1284624
:102180001F220A23FFF7D0F96946284602220A23B4
:10219000ADF800A0FFF7C8F9D2A1284618220A23FB
:1021A000FFF7C2F96946284602220A23ADF800A0CB
:1021B000FFF7BAF940F25400A4F52841C2F200003A
:1021C0004FF440234FF48017092280E84600C0E90D
:1021D0000363C0E90576C0E90766C0E90966C6621F
:1021E000FEF7CEF900283FD040F29804C2F2000476
:1021F0006946204602220A23ADF800A0FFF794F9B1
:1022000042F27455C0F600052046294629220A23C9
:10221000FFF78AF96946204602220A23ADF800A09A
:10222000FFF782F92046294629220A23FFF77CF985
:102230006946204602220A23ADF800A0FFF774F990
:1022400042F29971C0F60001204618220A23FFF7D6
:102250006BF96946204602220A23ADF800A0FFF779
:1022600063F900BFFEE700BF40F29804C2F2000429
:10227000A3A1204611220A23FFF756F9E94620467A
:10228000494602220A23ADF800A0FFF74DF94FF4AA
:10229000FA70FEF79DFA42F69301C0F6000120465F
:1022A00023220A23FFF740F96946204602220A2327
:1022B000ADF800A0FFF738F942F63601C0F600018C
:1022C00020461B220A23FFF72FF9694620460222E7
:1022D0000A23ADF800A0FFF727F940F21006C2F27A
:1022E00000060120C6E90E000E2042F6520100272A
:1022F00035463064C0F6000120462A220A2345F8FC
:102300001C7FC6E90877C6E90A77C6E90C77FFF7AC
:102310000BF96946204602220A23ADF800A0FFF718
:1023200003F940F25408C2F2000840462946FDF77E
:10233000C9FF42F67D01C0F60001204615220A239E
:10234000FFF7F2F86946204602220A23ADF800A002
:10235000FFF7EAF842F6B701C0F60001204619225D
:102360000A23FFF7E1F86946204602220A23ADF866
:1023700000A0FFF7D9F842F60401C0F6000120469C
:1023800018220A23FFF7D0F86946204602220A23C2
:10239000ADF800A0FFF7C8F8F12040F2001130605E
:1023A0000820C0F2023140F2045206F11003C0F2DC
:1023B000067207C342F2D671C0F60001204617220A
:1023C0000A23C6E90277FFF7AFF8694620460222E2
:1023D0000A23ADF800A0FFF7A7F842F25C51C0F65F
:1023E0000001204617220A23FFF79EF8694620467F
:1023F00002220A23ADF800A0FFF796F84FF4FA7016
:10240000FEF7E6F942F6DE0742F61D0642F6D10572
:10241000C0F60007C0F60006C0F6000520463946A3
:102420000F220A23FFF780F82046494602220A239A
:10243000ADF800A0FFF778F82046314618220A23AD
:10244000FFF772F82046494602220A23ADF800A0A1
:10245000FFF76AF840460A21FFF7A2F9204629460D
:102460000C220A23FFF760F82046494602220A237D
:10247000ADF800A0FFF758F8D0E700BF57656C63D0
:102480006F6D65005541525420616E64204750497C
:102490004F20697320696E69746961746564000016
:1024A000436C6F636B20636F6E66696775726564FA
:1024B0002000000048414C20696E697469617465B0
:1024C00064000000476F696E6720746F2074727932
:1024D00020746F20696E697469617465204D585F5E
:1024E00043414E00494E495449414C4953494E4796
:1024F0002043414E20425553204E4F5700000000CC
:1025000043414E2042555320494E49544941544578
:102510004400000002E008C8121F08C1002AFAD1D6
:1025200070477047002001E001C1121F002AFBD153
:1025300070470102000000000000000001020304D7
:102540000607080900000000010203040203040555
:10255000060708090A0B0C0D0E0F10104C696E6B64
:10256000696E6720697420746F20746865206863E1
:10257000616E20002F2F2F2F2F2F2F2F2F2F2F2F38
:102580002F2F2F2F2F2F2F2F2F2F2F2F2F2F2F2F5B
:102590002F2F2F2F2F2F2F2F2F2F2F2F2F0048414F
:1025A0004C5F43414E5F53544154455F425553592C
:1025B0005F54585F5258300048414C5F43414E5F72
:1025C00053544154455F425553595F54585F5258D4
:1025D000305F5258310048414C5F43414E5F535485
:1025E0004154455F425553595F54585F525831002A
:1025F0007472616E736D69746D61696C626F78205D
:102600003D2043414E5F54584D41494C424F585F25
:10261000303B007472616E736D69746D61696C62D8
:102620006F78203D2043414E5F54584D41494C4204
:102630004F585F313B007472616E736D69746D61E8
:10264000696C626F78203D2043414E5F54584D4184
:10265000494C424F585F323B0053657420757020DF
:1026600074686520444C430053657474696E672038
:10267000757020612053544420494400536574749C
:10268000696E6720757020616E20657874656E6470
:10269000656420494400446F6E65207365747469F5
:1026A0006E6720746865204944006863616E2D3E42
:1026B000496E7374616E63652D3E7354784D616924
:1026C0006C426F785B7472616E736D69746D616971
:1026D0006C626F785D2E5444545220263D20307831
:1026E00046464646464646303B20444F4E450068E7
:1026F00063616E2D3E496E7374616E63652D3E732A
:1027000054784D61696C426F785B7472616E736D61
:1027100069746D61696C626F785D2E544454522007
:102720007C3D206863616E2D3E7054784D73672D3B
:102730003E444C433B20444F4E45006863616E2D40
:102740003E7054784D73672D3E444C4320263D2007
:102750002875696E74385F742930783030303030C5
:102760003030463B20444F4E450053657420757011
:102770002074686520444C4320444F4E4500536507
:1027800074207570207468652064617461206669C6
:10279000656C6420444F4E45004552524F522049CB
:1027A0004E4954494154494E472043414E204255D9
:1027B000530048414C5F43414E5F53544154455F81
:1027C000425553595F5458005365742075702074F6
:1027D0006865204964004D657373616765206461B5
:1027E000746120636F6E6669677572656400536516
:1027F0007420757020746865206461746120666956
:10280000656C640053657474696E6720757020741C
:1028100068652054784D65737361676500547279FB
:10282000696E6720746F2073656E642061206D652A
:102830007373616765005374617274696E672077A2
:10284000697468207346696C746572436F6E66695B
:10285000670046696C74657220636F6E66696720F5
:1028600077617320646F6E65206E6F7720746F20C0
:102870006C696E6B20746F206863616E00416C6CD4
:10288000206C696E6B656420757020746F206863BE
:10289000616E0053657474696E6720746865204DBD
:1028A0006573736167657320616E64207065726122
:1028B0006D6574657273004E6F7720666F72207459
:1028C00068652054782073696465206F6620697498
:1028D000004D6573736167652073656E7400496EA2
:1028E00020746865206C6F6F70206E6F7700536581
:1028F0006C656374206F6E6520656D7074792074EB
:1029000072616E736D6974206D61696C626F7800BD
:1029100030290008000000201000000014250008E5
:102920004029000810000020D004000024250008E1
:10293000010000001000000000A24A040000000096
:04000005080000ED02
:00000001FF
